{
  "_format": "hh-sol-artifact-1",
  "contractName": "ClassToken",
  "sourceName": "contracts/ClassToken.sol",
  "abi": [
    {
      "inputs": [
        {
          "internalType": "uint256",
          "name": "initialSupply",
          "type": "uint256"
        }
      ],
      "stateMutability": "nonpayable",
      "type": "constructor"
    },
    {
      "anonymous": false,
      "inputs": [
        {
          "indexed": true,
          "internalType": "address",
          "name": "owner",
          "type": "address"
        },
        {
          "indexed": true,
          "internalType": "address",
          "name": "spender",
          "type": "address"
        },
        {
          "indexed": false,
          "internalType": "uint256",
          "name": "value",
          "type": "uint256"
        }
      ],
      "name": "Approval",
      "type": "event"
    },
    {
      "anonymous": false,
      "inputs": [
        {
          "indexed": true,
          "internalType": "address",
          "name": "from",
          "type": "address"
        },
        {
          "indexed": true,
          "internalType": "address",
          "name": "to",
          "type": "address"
        },
        {
          "indexed": false,
          "internalType": "uint256",
          "name": "value",
          "type": "uint256"
        }
      ],
      "name": "Transfer",
      "type": "event"
    },
    {
      "inputs": [
        {
          "internalType": "address",
          "name": "owner",
          "type": "address"
        },
        {
          "internalType": "address",
          "name": "spender",
          "type": "address"
        }
      ],
      "name": "allowance",
      "outputs": [
        {
          "internalType": "uint256",
          "name": "",
          "type": "uint256"
        }
      ],
      "stateMutability": "view",
      "type": "function"
    },
    {
      "inputs": [
        {
          "internalType": "address",
          "name": "spender",
          "type": "address"
        },
        {
          "internalType": "uint256",
          "name": "amount",
          "type": "uint256"
        }
      ],
      "name": "approve",
      "outputs": [
        {
          "internalType": "bool",
          "name": "",
          "type": "bool"
        }
      ],
      "stateMutability": "nonpayable",
      "type": "function"
    },
    {
      "inputs": [],
      "name": "balance",
      "outputs": [
        {
          "internalType": "uint256",
          "name": "",
          "type": "uint256"
        }
      ],
      "stateMutability": "view",
      "type": "function"
    },
    {
      "inputs": [
        {
          "internalType": "address",
          "name": "account",
          "type": "address"
        }
      ],
      "name": "balanceOf",
      "outputs": [
        {
          "internalType": "uint256",
          "name": "",
          "type": "uint256"
        }
      ],
      "stateMutability": "view",
      "type": "function"
    },
    {
      "inputs": [],
      "name": "decimals",
      "outputs": [
        {
          "internalType": "uint8",
          "name": "",
          "type": "uint8"
        }
      ],
      "stateMutability": "view",
      "type": "function"
    },
    {
      "inputs": [
        {
          "internalType": "address",
          "name": "spender",
          "type": "address"
        },
        {
          "internalType": "uint256",
          "name": "subtractedValue",
          "type": "uint256"
        }
      ],
      "name": "decreaseAllowance",
      "outputs": [
        {
          "internalType": "bool",
          "name": "",
          "type": "bool"
        }
      ],
      "stateMutability": "nonpayable",
      "type": "function"
    },
    {
      "inputs": [
        {
          "internalType": "uint256",
          "name": "amount",
          "type": "uint256"
        }
      ],
      "name": "decrement",
      "outputs": [],
      "stateMutability": "nonpayable",
      "type": "function"
    },
    {
      "inputs": [
        {
          "internalType": "address",
          "name": "spender",
          "type": "address"
        },
        {
          "internalType": "uint256",
          "name": "addedValue",
          "type": "uint256"
        }
      ],
      "name": "increaseAllowance",
      "outputs": [
        {
          "internalType": "bool",
          "name": "",
          "type": "bool"
        }
      ],
      "stateMutability": "nonpayable",
      "type": "function"
    },
    {
      "inputs": [
        {
          "internalType": "uint256",
          "name": "amount",
          "type": "uint256"
        }
      ],
      "name": "increment",
      "outputs": [],
      "stateMutability": "nonpayable",
      "type": "function"
    },
    {
      "inputs": [],
      "name": "name",
      "outputs": [
        {
          "internalType": "string",
          "name": "",
          "type": "string"
        }
      ],
      "stateMutability": "view",
      "type": "function"
    },
    {
      "inputs": [],
      "name": "symbol",
      "outputs": [
        {
          "internalType": "string",
          "name": "",
          "type": "string"
        }
      ],
      "stateMutability": "view",
      "type": "function"
    },
    {
      "inputs": [],
      "name": "totalSupply",
      "outputs": [
        {
          "internalType": "uint256",
          "name": "",
          "type": "uint256"
        }
      ],
      "stateMutability": "view",
      "type": "function"
    },
    {
      "inputs": [
        {
          "internalType": "address",
          "name": "to",
          "type": "address"
        },
        {
          "internalType": "uint256",
          "name": "amount",
          "type": "uint256"
        }
      ],
      "name": "transfer",
      "outputs": [
        {
          "internalType": "bool",
          "name": "",
          "type": "bool"
        }
      ],
      "stateMutability": "nonpayable",
      "type": "function"
    },
    {
      "inputs": [
        {
          "internalType": "address",
          "name": "from",
          "type": "address"
        },
        {
          "internalType": "address",
          "name": "to",
          "type": "address"
        },
        {
          "internalType": "uint256",
          "name": "amount",
          "type": "uint256"
        }
      ],
      "name": "transferFrom",
      "outputs": [
        {
          "internalType": "bool",
          "name": "",
          "type": "bool"
        }
      ],
      "stateMutability": "nonpayable",
      "type": "function"
    }
  ],
  "bytecode": "0x608060405260126005553480156200001657600080fd5b5060405162001ab838038062001ab883398181016040528101906200003c91906200033f565b6040518060400160405280600a81526020017f436c617373546f6b656e000000000000000000000000000000000000000000008152506040518060400160405280600381526020017f434c5400000000000000000000000000000000000000000000000000000000008152508160039080519060200190620000c092919062000278565b508060049080519060200190620000d992919062000278565b505050620000ee3382620000f560201b60201c565b5062000531565b600073ffffffffffffffffffffffffffffffffffffffff168273ffffffffffffffffffffffffffffffffffffffff16141562000168576040517f08c379a00000000000000000000000000000000000000000000000000000000081526004016200015f90620003a3565b60405180910390fd5b6200017c600083836200026e60201b60201c565b8060026000828254620001909190620003f3565b92505081905550806000808473ffffffffffffffffffffffffffffffffffffffff1673ffffffffffffffffffffffffffffffffffffffff1681526020019081526020016000206000828254620001e79190620003f3565b925050819055508173ffffffffffffffffffffffffffffffffffffffff16600073ffffffffffffffffffffffffffffffffffffffff167fddf252ad1be2c89b69c2b068fc378daa952ba7f163c4a11628f55a4df523b3ef836040516200024e9190620003c5565b60405180910390a36200026a600083836200027360201b60201c565b5050565b505050565b505050565b82805462000286906200045a565b90600052602060002090601f016020900481019282620002aa5760008555620002f6565b82601f10620002c557805160ff1916838001178555620002f6565b82800160010185558215620002f6579182015b82811115620002f5578251825591602001919060010190620002d8565b5b50905062000305919062000309565b5090565b5b80821115620003245760008160009055506001016200030a565b5090565b600081519050620003398162000517565b92915050565b6000602082840312156200035257600080fd5b6000620003628482850162000328565b91505092915050565b60006200037a601f83620003e2565b91506200038782620004ee565b602082019050919050565b6200039d8162000450565b82525050565b60006020820190508181036000830152620003be816200036b565b9050919050565b6000602082019050620003dc600083018462000392565b92915050565b600082825260208201905092915050565b6000620004008262000450565b91506200040d8362000450565b9250827fffffffffffffffffffffffffffffffffffffffffffffffffffffffffffffffff0382111562000445576200044462000490565b5b828201905092915050565b6000819050919050565b600060028204905060018216806200047357607f821691505b602082108114156200048a5762000489620004bf565b5b50919050565b7f4e487b7100000000000000000000000000000000000000000000000000000000600052601160045260246000fd5b7f4e487b7100000000000000000000000000000000000000000000000000000000600052602260045260246000fd5b7f45524332303a206d696e7420746f20746865207a65726f206164647265737300600082015250565b620005228162000450565b81146200052e57600080fd5b50565b61157780620005416000396000f3fe608060405234801561001057600080fd5b50600436106100ea5760003560e01c806370a082311161008c578063a457c2d711610066578063a457c2d71461025f578063a9059cbb1461028f578063b69ef8a8146102bf578063dd62ed3e146102dd576100ea565b806370a08231146101f55780637cf5dab01461022557806395d89b4114610241576100ea565b806323b872dd116100c857806323b872dd1461015b578063313ce5671461018b57806339509351146101a95780633a9ebefd146101d9576100ea565b806306fdde03146100ef578063095ea7b31461010d57806318160ddd1461013d575b600080fd5b6100f761030d565b6040516101049190610fc0565b60405180910390f35b61012760048036038101906101229190610dc2565b61039f565b6040516101349190610fa5565b60405180910390f35b6101456103c2565b60405161015291906110e2565b60405180910390f35b61017560048036038101906101709190610d73565b6103cc565b6040516101829190610fa5565b60405180910390f35b6101936103fb565b6040516101a091906110fd565b60405180910390f35b6101c360048036038101906101be9190610dc2565b610404565b6040516101d09190610fa5565b60405180910390f35b6101f360048036038101906101ee9190610dfe565b61043b565b005b61020f600480360381019061020a9190610d0e565b61046a565b60405161021c91906110e2565b60405180910390f35b61023f600480360381019061023a9190610dfe565b6104b2565b005b6102496104e1565b6040516102569190610fc0565b60405180910390f35b61027960048036038101906102749190610dc2565b610573565b6040516102869190610fa5565b60405180910390f35b6102a960048036038101906102a49190610dc2565b6105ea565b6040516102b69190610fa5565b60405180910390f35b6102c761060d565b6040516102d491906110e2565b60405180910390f35b6102f760048036038101906102f29190610d37565b610613565b60405161030491906110e2565b60405180910390f35b60606003805461031c90611246565b80601f016020809104026020016040519081016040528092919081815260200182805461034890611246565b80156103955780601f1061036a57610100808354040283529160200191610395565b820191906000526020600020905b81548152906001019060200180831161037857829003601f168201915b5050505050905090565b6000806103aa61069a565b90506103b78185856106a2565b600191505092915050565b6000600254905090565b6000806103d761069a565b90506103e485828561086d565b6103ef8585856108f9565b60019150509392505050565b60006012905090565b60008061040f61069a565b90506104308185856104218589610613565b61042b9190611134565b6106a2565b600191505092915050565b61046733823373ffffffffffffffffffffffffffffffffffffffff1631610462919061118a565b610b7a565b50565b60008060008373ffffffffffffffffffffffffffffffffffffffff1673ffffffffffffffffffffffffffffffffffffffff168152602001908152602001600020549050919050565b6104de33823373ffffffffffffffffffffffffffffffffffffffff16316104d99190611134565b610b7a565b50565b6060600480546104f090611246565b80601f016020809104026020016040519081016040528092919081815260200182805461051c90611246565b80156105695780601f1061053e57610100808354040283529160200191610569565b820191906000526020600020905b81548152906001019060200180831161054c57829003601f168201915b5050505050905090565b60008061057e61069a565b9050600061058c8286610613565b9050838110156105d1576040517f08c379a00000000000000000000000000000000000000000000000000000000081526004016105c8906110a2565b60405180910390fd5b6105de82868684036106a2565b60019250505092915050565b6000806105f561069a565b90506106028185856108f9565b600191505092915050565b60055481565b6000600160008473ffffffffffffffffffffffffffffffffffffffff1673ffffffffffffffffffffffffffffffffffffffff16815260200190815260200160002060008373ffffffffffffffffffffffffffffffffffffffff1673ffffffffffffffffffffffffffffffffffffffff16815260200190815260200160002054905092915050565b600033905090565b600073ffffffffffffffffffffffffffffffffffffffff168373ffffffffffffffffffffffffffffffffffffffff161415610712576040517f08c379a000000000000000000000000000000000000000000000000000000000815260040161070990611082565b60405180910390fd5b600073ffffffffffffffffffffffffffffffffffffffff168273ffffffffffffffffffffffffffffffffffffffff161415610782576040517f08c379a000000000000000000000000000000000000000000000000000000000815260040161077990611002565b60405180910390fd5b80600160008573ffffffffffffffffffffffffffffffffffffffff1673ffffffffffffffffffffffffffffffffffffffff16815260200190815260200160002060008473ffffffffffffffffffffffffffffffffffffffff1673ffffffffffffffffffffffffffffffffffffffff168152602001908152602001600020819055508173ffffffffffffffffffffffffffffffffffffffff168373ffffffffffffffffffffffffffffffffffffffff167f8c5be1e5ebec7d5bd14f71427d1e84f3dd0314c0f7b2291e5b200ac8c7c3b9258360405161086091906110e2565b60405180910390a3505050565b60006108798484610613565b90507fffffffffffffffffffffffffffffffffffffffffffffffffffffffffffffffff81146108f357818110156108e5576040517f08c379a00000000000000000000000000000000000000000000000000000000081526004016108dc90611022565b60405180910390fd5b6108f284848484036106a2565b5b50505050565b600073ffffffffffffffffffffffffffffffffffffffff168373ffffffffffffffffffffffffffffffffffffffff161415610969576040517f08c379a000000000000000000000000000000000000000000000000000000000815260040161096090611062565b60405180910390fd5b600073ffffffffffffffffffffffffffffffffffffffff168273ffffffffffffffffffffffffffffffffffffffff1614156109d9576040517f08c379a00000000000000000000000000000000000000000000000000000000081526004016109d090610fe2565b60405180910390fd5b6109e4838383610cda565b60008060008573ffffffffffffffffffffffffffffffffffffffff1673ffffffffffffffffffffffffffffffffffffffff16815260200190815260200160002054905081811015610a6a576040517f08c379a0000000000000000000000000000000000000000000000000000000008152600401610a6190611042565b60405180910390fd5b8181036000808673ffffffffffffffffffffffffffffffffffffffff1673ffffffffffffffffffffffffffffffffffffffff16815260200190815260200160002081905550816000808573ffffffffffffffffffffffffffffffffffffffff1673ffffffffffffffffffffffffffffffffffffffff1681526020019081526020016000206000828254610afd9190611134565b925050819055508273ffffffffffffffffffffffffffffffffffffffff168473ffffffffffffffffffffffffffffffffffffffff167fddf252ad1be2c89b69c2b068fc378daa952ba7f163c4a11628f55a4df523b3ef84604051610b6191906110e2565b60405180910390a3610b74848484610cdf565b50505050565b600073ffffffffffffffffffffffffffffffffffffffff168273ffffffffffffffffffffffffffffffffffffffff161415610bea576040517f08c379a0000000000000000000000000000000000000000000000000000000008152600401610be1906110c2565b60405180910390fd5b610bf660008383610cda565b8060026000828254610c089190611134565b92505081905550806000808473ffffffffffffffffffffffffffffffffffffffff1673ffffffffffffffffffffffffffffffffffffffff1681526020019081526020016000206000828254610c5d9190611134565b925050819055508173ffffffffffffffffffffffffffffffffffffffff16600073ffffffffffffffffffffffffffffffffffffffff167fddf252ad1be2c89b69c2b068fc378daa952ba7f163c4a11628f55a4df523b3ef83604051610cc291906110e2565b60405180910390a3610cd660008383610cdf565b5050565b505050565b505050565b600081359050610cf381611513565b92915050565b600081359050610d088161152a565b92915050565b600060208284031215610d2057600080fd5b6000610d2e84828501610ce4565b91505092915050565b60008060408385031215610d4a57600080fd5b6000610d5885828601610ce4565b9250506020610d6985828601610ce4565b9150509250929050565b600080600060608486031215610d8857600080fd5b6000610d9686828701610ce4565b9350506020610da786828701610ce4565b9250506040610db886828701610cf9565b9150509250925092565b60008060408385031215610dd557600080fd5b6000610de385828601610ce4565b9250506020610df485828601610cf9565b9150509250929050565b600060208284031215610e1057600080fd5b6000610e1e84828501610cf9565b91505092915050565b610e30816111d0565b82525050565b6000610e4182611118565b610e4b8185611123565b9350610e5b818560208601611213565b610e64816112d6565b840191505092915050565b6000610e7c602383611123565b9150610e87826112e7565b604082019050919050565b6000610e9f602283611123565b9150610eaa82611336565b604082019050919050565b6000610ec2601d83611123565b9150610ecd82611385565b602082019050919050565b6000610ee5602683611123565b9150610ef0826113ae565b604082019050919050565b6000610f08602583611123565b9150610f13826113fd565b604082019050919050565b6000610f2b602483611123565b9150610f368261144c565b604082019050919050565b6000610f4e602583611123565b9150610f598261149b565b604082019050919050565b6000610f71601f83611123565b9150610f7c826114ea565b602082019050919050565b610f90816111fc565b82525050565b610f9f81611206565b82525050565b6000602082019050610fba6000830184610e27565b92915050565b60006020820190508181036000830152610fda8184610e36565b905092915050565b60006020820190508181036000830152610ffb81610e6f565b9050919050565b6000602082019050818103600083015261101b81610e92565b9050919050565b6000602082019050818103600083015261103b81610eb5565b9050919050565b6000602082019050818103600083015261105b81610ed8565b9050919050565b6000602082019050818103600083015261107b81610efb565b9050919050565b6000602082019050818103600083015261109b81610f1e565b9050919050565b600060208201905081810360008301526110bb81610f41565b9050919050565b600060208201905081810360008301526110db81610f64565b9050919050565b60006020820190506110f76000830184610f87565b92915050565b60006020820190506111126000830184610f96565b92915050565b600081519050919050565b600082825260208201905092915050565b600061113f826111fc565b915061114a836111fc565b9250827fffffffffffffffffffffffffffffffffffffffffffffffffffffffffffffffff0382111561117f5761117e611278565b5b828201905092915050565b6000611195826111fc565b91506111a0836111fc565b9250828210156111b3576111b2611278565b5b828203905092915050565b60006111c9826111dc565b9050919050565b60008115159050919050565b600073ffffffffffffffffffffffffffffffffffffffff82169050919050565b6000819050919050565b600060ff82169050919050565b60005b83811015611231578082015181840152602081019050611216565b83811115611240576000848401525b50505050565b6000600282049050600182168061125e57607f821691505b60208210811415611272576112716112a7565b5b50919050565b7f4e487b7100000000000000000000000000000000000000000000000000000000600052601160045260246000fd5b7f4e487b7100000000000000000000000000000000000000000000000000000000600052602260045260246000fd5b6000601f19601f8301169050919050565b7f45524332303a207472616e7366657220746f20746865207a65726f206164647260008201527f6573730000000000000000000000000000000000000000000000000000000000602082015250565b7f45524332303a20617070726f766520746f20746865207a65726f20616464726560008201527f7373000000000000000000000000000000000000000000000000000000000000602082015250565b7f45524332303a20696e73756666696369656e7420616c6c6f77616e6365000000600082015250565b7f45524332303a207472616e7366657220616d6f756e742065786365656473206260008201527f616c616e63650000000000000000000000000000000000000000000000000000602082015250565b7f45524332303a207472616e736665722066726f6d20746865207a65726f20616460008201527f6472657373000000000000000000000000000000000000000000000000000000602082015250565b7f45524332303a20617070726f76652066726f6d20746865207a65726f2061646460008201527f7265737300000000000000000000000000000000000000000000000000000000602082015250565b7f45524332303a2064656372656173656420616c6c6f77616e63652062656c6f7760008201527f207a65726f000000000000000000000000000000000000000000000000000000602082015250565b7f45524332303a206d696e7420746f20746865207a65726f206164647265737300600082015250565b61151c816111be565b811461152757600080fd5b50565b611533816111fc565b811461153e57600080fd5b5056fea2646970667358221220211bd67c652147607502e1a3a77d411759535f76ceb2b7a2b701016134d3bc0e64736f6c63430008040033",
  "linkReferences": {},
  "deployedLinkReferences": {}
}