{
  "_format": "hh-sol-artifact-1",
  "contractName": "ClassToken",
  "sourceName": "contracts/ClassToken.sol",
  "abi": [
    {
      "inputs": [
        {
          "internalType": "uint256",
          "name": "initialSupply",
          "type": "uint256"
        }
      ],
      "stateMutability": "nonpayable",
      "type": "constructor"
    },
    {
      "anonymous": false,
      "inputs": [
        {
          "indexed": true,
          "internalType": "address",
          "name": "owner",
          "type": "address"
        },
        {
          "indexed": true,
          "internalType": "address",
          "name": "spender",
          "type": "address"
        },
        {
          "indexed": false,
          "internalType": "uint256",
          "name": "value",
          "type": "uint256"
        }
      ],
      "name": "Approval",
      "type": "event"
    },
    {
      "anonymous": false,
      "inputs": [
        {
          "indexed": true,
          "internalType": "address",
          "name": "from",
          "type": "address"
        },
        {
          "indexed": true,
          "internalType": "address",
          "name": "to",
          "type": "address"
        },
        {
          "indexed": false,
          "internalType": "uint256",
          "name": "value",
          "type": "uint256"
        }
      ],
      "name": "Transfer",
      "type": "event"
    },
    {
      "inputs": [
        {
          "internalType": "address",
          "name": "owner",
          "type": "address"
        },
        {
          "internalType": "address",
          "name": "spender",
          "type": "address"
        }
      ],
      "name": "allowance",
      "outputs": [
        {
          "internalType": "uint256",
          "name": "",
          "type": "uint256"
        }
      ],
      "stateMutability": "view",
      "type": "function"
    },
    {
      "inputs": [
        {
          "internalType": "address",
          "name": "spender",
          "type": "address"
        },
        {
          "internalType": "uint256",
          "name": "amount",
          "type": "uint256"
        }
      ],
      "name": "approve",
      "outputs": [
        {
          "internalType": "bool",
          "name": "",
          "type": "bool"
        }
      ],
      "stateMutability": "nonpayable",
      "type": "function"
    },
    {
      "inputs": [
        {
          "internalType": "address",
          "name": "account",
          "type": "address"
        }
      ],
      "name": "balanceOf",
      "outputs": [
        {
          "internalType": "uint256",
          "name": "",
          "type": "uint256"
        }
      ],
      "stateMutability": "view",
      "type": "function"
    },
    {
      "inputs": [],
      "name": "decimals",
      "outputs": [
        {
          "internalType": "uint8",
          "name": "",
          "type": "uint8"
        }
      ],
      "stateMutability": "view",
      "type": "function"
    },
    {
      "inputs": [
        {
          "internalType": "address",
          "name": "spender",
          "type": "address"
        },
        {
          "internalType": "uint256",
          "name": "subtractedValue",
          "type": "uint256"
        }
      ],
      "name": "decreaseAllowance",
      "outputs": [
        {
          "internalType": "bool",
          "name": "",
          "type": "bool"
        }
      ],
      "stateMutability": "nonpayable",
      "type": "function"
    },
    {
      "inputs": [
        {
          "internalType": "uint256",
          "name": "amount",
          "type": "uint256"
        }
      ],
      "name": "decrement",
      "outputs": [],
      "stateMutability": "nonpayable",
      "type": "function"
    },
    {
      "inputs": [
        {
          "internalType": "address",
          "name": "spender",
          "type": "address"
        },
        {
          "internalType": "uint256",
          "name": "addedValue",
          "type": "uint256"
        }
      ],
      "name": "increaseAllowance",
      "outputs": [
        {
          "internalType": "bool",
          "name": "",
          "type": "bool"
        }
      ],
      "stateMutability": "nonpayable",
      "type": "function"
    },
    {
      "inputs": [
        {
          "internalType": "uint256",
          "name": "amount",
          "type": "uint256"
        }
      ],
      "name": "increment",
      "outputs": [],
      "stateMutability": "nonpayable",
      "type": "function"
    },
    {
      "inputs": [],
      "name": "name",
      "outputs": [
        {
          "internalType": "string",
          "name": "",
          "type": "string"
        }
      ],
      "stateMutability": "view",
      "type": "function"
    },
    {
      "inputs": [],
      "name": "symbol",
      "outputs": [
        {
          "internalType": "string",
          "name": "",
          "type": "string"
        }
      ],
      "stateMutability": "view",
      "type": "function"
    },
    {
      "inputs": [],
      "name": "totalSupply",
      "outputs": [
        {
          "internalType": "uint256",
          "name": "",
          "type": "uint256"
        }
      ],
      "stateMutability": "view",
      "type": "function"
    },
    {
      "inputs": [
        {
          "internalType": "address",
          "name": "to",
          "type": "address"
        },
        {
          "internalType": "uint256",
          "name": "amount",
          "type": "uint256"
        }
      ],
      "name": "transfer",
      "outputs": [
        {
          "internalType": "bool",
          "name": "",
          "type": "bool"
        }
      ],
      "stateMutability": "nonpayable",
      "type": "function"
    },
    {
      "inputs": [
        {
          "internalType": "address",
          "name": "from",
          "type": "address"
        },
        {
          "internalType": "address",
          "name": "to",
          "type": "address"
        },
        {
          "internalType": "uint256",
          "name": "amount",
          "type": "uint256"
        }
      ],
      "name": "transferFrom",
      "outputs": [
        {
          "internalType": "bool",
          "name": "",
          "type": "bool"
        }
      ],
      "stateMutability": "nonpayable",
      "type": "function"
    }
  ],
  "bytecode": "0x60806040523480156200001157600080fd5b5060405162001a7438038062001a7483398181016040528101906200003791906200033a565b6040518060400160405280600a81526020017f436c617373546f6b656e000000000000000000000000000000000000000000008152506040518060400160405280600381526020017f434c5400000000000000000000000000000000000000000000000000000000008152508160039080519060200190620000bb92919062000273565b508060049080519060200190620000d492919062000273565b505050620000e93382620000f060201b60201c565b506200052c565b600073ffffffffffffffffffffffffffffffffffffffff168273ffffffffffffffffffffffffffffffffffffffff16141562000163576040517f08c379a00000000000000000000000000000000000000000000000000000000081526004016200015a906200039e565b60405180910390fd5b62000177600083836200026960201b60201c565b80600260008282546200018b9190620003ee565b92505081905550806000808473ffffffffffffffffffffffffffffffffffffffff1673ffffffffffffffffffffffffffffffffffffffff1681526020019081526020016000206000828254620001e29190620003ee565b925050819055508173ffffffffffffffffffffffffffffffffffffffff16600073ffffffffffffffffffffffffffffffffffffffff167fddf252ad1be2c89b69c2b068fc378daa952ba7f163c4a11628f55a4df523b3ef83604051620002499190620003c0565b60405180910390a362000265600083836200026e60201b60201c565b5050565b505050565b505050565b828054620002819062000455565b90600052602060002090601f016020900481019282620002a55760008555620002f1565b82601f10620002c057805160ff1916838001178555620002f1565b82800160010185558215620002f1579182015b82811115620002f0578251825591602001919060010190620002d3565b5b50905062000300919062000304565b5090565b5b808211156200031f57600081600090555060010162000305565b5090565b600081519050620003348162000512565b92915050565b6000602082840312156200034d57600080fd5b60006200035d8482850162000323565b91505092915050565b600062000375601f83620003dd565b91506200038282620004e9565b602082019050919050565b62000398816200044b565b82525050565b60006020820190508181036000830152620003b98162000366565b9050919050565b6000602082019050620003d760008301846200038d565b92915050565b600082825260208201905092915050565b6000620003fb826200044b565b915062000408836200044b565b9250827fffffffffffffffffffffffffffffffffffffffffffffffffffffffffffffffff0382111562000440576200043f6200048b565b5b828201905092915050565b6000819050919050565b600060028204905060018216806200046e57607f821691505b60208210811415620004855762000484620004ba565b5b50919050565b7f4e487b7100000000000000000000000000000000000000000000000000000000600052601160045260246000fd5b7f4e487b7100000000000000000000000000000000000000000000000000000000600052602260045260246000fd5b7f45524332303a206d696e7420746f20746865207a65726f206164647265737300600082015250565b6200051d816200044b565b81146200052957600080fd5b50565b611538806200053c6000396000f3fe608060405234801561001057600080fd5b50600436106100cf5760003560e01c80633a9ebefd1161008c57806395d89b411161006657806395d89b4114610226578063a457c2d714610244578063a9059cbb14610274578063dd62ed3e146102a4576100cf565b80633a9ebefd146101be57806370a08231146101da5780637cf5dab01461020a576100cf565b806306fdde03146100d4578063095ea7b3146100f257806318160ddd1461012257806323b872dd14610140578063313ce56714610170578063395093511461018e575b600080fd5b6100dc6102d4565b6040516100e99190610f81565b60405180910390f35b61010c60048036038101906101079190610d83565b610366565b6040516101199190610f66565b60405180910390f35b61012a610389565b60405161013791906110a3565b60405180910390f35b61015a60048036038101906101559190610d34565b610393565b6040516101679190610f66565b60405180910390f35b6101786103c2565b60405161018591906110be565b60405180910390f35b6101a860048036038101906101a39190610d83565b6103cb565b6040516101b59190610f66565b60405180910390f35b6101d860048036038101906101d39190610dbf565b610402565b005b6101f460048036038101906101ef9190610ccf565b610431565b60405161020191906110a3565b60405180910390f35b610224600480360381019061021f9190610dbf565b610479565b005b61022e6104a8565b60405161023b9190610f81565b60405180910390f35b61025e60048036038101906102599190610d83565b61053a565b60405161026b9190610f66565b60405180910390f35b61028e60048036038101906102899190610d83565b6105b1565b60405161029b9190610f66565b60405180910390f35b6102be60048036038101906102b99190610cf8565b6105d4565b6040516102cb91906110a3565b60405180910390f35b6060600380546102e390611207565b80601f016020809104026020016040519081016040528092919081815260200182805461030f90611207565b801561035c5780601f106103315761010080835404028352916020019161035c565b820191906000526020600020905b81548152906001019060200180831161033f57829003601f168201915b5050505050905090565b60008061037161065b565b905061037e818585610663565b600191505092915050565b6000600254905090565b60008061039e61065b565b90506103ab85828561082e565b6103b68585856108ba565b60019150509392505050565b60006012905090565b6000806103d661065b565b90506103f78185856103e885896105d4565b6103f291906110f5565b610663565b600191505092915050565b61042e33823373ffffffffffffffffffffffffffffffffffffffff1631610429919061114b565b610b3b565b50565b60008060008373ffffffffffffffffffffffffffffffffffffffff1673ffffffffffffffffffffffffffffffffffffffff168152602001908152602001600020549050919050565b6104a533823373ffffffffffffffffffffffffffffffffffffffff16316104a091906110f5565b610b3b565b50565b6060600480546104b790611207565b80601f01602080910402602001604051908101604052809291908181526020018280546104e390611207565b80156105305780601f1061050557610100808354040283529160200191610530565b820191906000526020600020905b81548152906001019060200180831161051357829003601f168201915b5050505050905090565b60008061054561065b565b9050600061055382866105d4565b905083811015610598576040517f08c379a000000000000000000000000000000000000000000000000000000000815260040161058f90611063565b60405180910390fd5b6105a58286868403610663565b60019250505092915050565b6000806105bc61065b565b90506105c98185856108ba565b600191505092915050565b6000600160008473ffffffffffffffffffffffffffffffffffffffff1673ffffffffffffffffffffffffffffffffffffffff16815260200190815260200160002060008373ffffffffffffffffffffffffffffffffffffffff1673ffffffffffffffffffffffffffffffffffffffff16815260200190815260200160002054905092915050565b600033905090565b600073ffffffffffffffffffffffffffffffffffffffff168373ffffffffffffffffffffffffffffffffffffffff1614156106d3576040517f08c379a00000000000000000000000000000000000000000000000000000000081526004016106ca90611043565b60405180910390fd5b600073ffffffffffffffffffffffffffffffffffffffff168273ffffffffffffffffffffffffffffffffffffffff161415610743576040517f08c379a000000000000000000000000000000000000000000000000000000000815260040161073a90610fc3565b60405180910390fd5b80600160008573ffffffffffffffffffffffffffffffffffffffff1673ffffffffffffffffffffffffffffffffffffffff16815260200190815260200160002060008473ffffffffffffffffffffffffffffffffffffffff1673ffffffffffffffffffffffffffffffffffffffff168152602001908152602001600020819055508173ffffffffffffffffffffffffffffffffffffffff168373ffffffffffffffffffffffffffffffffffffffff167f8c5be1e5ebec7d5bd14f71427d1e84f3dd0314c0f7b2291e5b200ac8c7c3b9258360405161082191906110a3565b60405180910390a3505050565b600061083a84846105d4565b90507fffffffffffffffffffffffffffffffffffffffffffffffffffffffffffffffff81146108b457818110156108a6576040517f08c379a000000000000000000000000000000000000000000000000000000000815260040161089d90610fe3565b60405180910390fd5b6108b38484848403610663565b5b50505050565b600073ffffffffffffffffffffffffffffffffffffffff168373ffffffffffffffffffffffffffffffffffffffff16141561092a576040517f08c379a000000000000000000000000000000000000000000000000000000000815260040161092190611023565b60405180910390fd5b600073ffffffffffffffffffffffffffffffffffffffff168273ffffffffffffffffffffffffffffffffffffffff16141561099a576040517f08c379a000000000000000000000000000000000000000000000000000000000815260040161099190610fa3565b60405180910390fd5b6109a5838383610c9b565b60008060008573ffffffffffffffffffffffffffffffffffffffff1673ffffffffffffffffffffffffffffffffffffffff16815260200190815260200160002054905081811015610a2b576040517f08c379a0000000000000000000000000000000000000000000000000000000008152600401610a2290611003565b60405180910390fd5b8181036000808673ffffffffffffffffffffffffffffffffffffffff1673ffffffffffffffffffffffffffffffffffffffff16815260200190815260200160002081905550816000808573ffffffffffffffffffffffffffffffffffffffff1673ffffffffffffffffffffffffffffffffffffffff1681526020019081526020016000206000828254610abe91906110f5565b925050819055508273ffffffffffffffffffffffffffffffffffffffff168473ffffffffffffffffffffffffffffffffffffffff167fddf252ad1be2c89b69c2b068fc378daa952ba7f163c4a11628f55a4df523b3ef84604051610b2291906110a3565b60405180910390a3610b35848484610ca0565b50505050565b600073ffffffffffffffffffffffffffffffffffffffff168273ffffffffffffffffffffffffffffffffffffffff161415610bab576040517f08c379a0000000000000000000000000000000000000000000000000000000008152600401610ba290611083565b60405180910390fd5b610bb760008383610c9b565b8060026000828254610bc991906110f5565b92505081905550806000808473ffffffffffffffffffffffffffffffffffffffff1673ffffffffffffffffffffffffffffffffffffffff1681526020019081526020016000206000828254610c1e91906110f5565b925050819055508173ffffffffffffffffffffffffffffffffffffffff16600073ffffffffffffffffffffffffffffffffffffffff167fddf252ad1be2c89b69c2b068fc378daa952ba7f163c4a11628f55a4df523b3ef83604051610c8391906110a3565b60405180910390a3610c9760008383610ca0565b5050565b505050565b505050565b600081359050610cb4816114d4565b92915050565b600081359050610cc9816114eb565b92915050565b600060208284031215610ce157600080fd5b6000610cef84828501610ca5565b91505092915050565b60008060408385031215610d0b57600080fd5b6000610d1985828601610ca5565b9250506020610d2a85828601610ca5565b9150509250929050565b600080600060608486031215610d4957600080fd5b6000610d5786828701610ca5565b9350506020610d6886828701610ca5565b9250506040610d7986828701610cba565b9150509250925092565b60008060408385031215610d9657600080fd5b6000610da485828601610ca5565b9250506020610db585828601610cba565b9150509250929050565b600060208284031215610dd157600080fd5b6000610ddf84828501610cba565b91505092915050565b610df181611191565b82525050565b6000610e02826110d9565b610e0c81856110e4565b9350610e1c8185602086016111d4565b610e2581611297565b840191505092915050565b6000610e3d6023836110e4565b9150610e48826112a8565b604082019050919050565b6000610e606022836110e4565b9150610e6b826112f7565b604082019050919050565b6000610e83601d836110e4565b9150610e8e82611346565b602082019050919050565b6000610ea66026836110e4565b9150610eb18261136f565b604082019050919050565b6000610ec96025836110e4565b9150610ed4826113be565b604082019050919050565b6000610eec6024836110e4565b9150610ef78261140d565b604082019050919050565b6000610f0f6025836110e4565b9150610f1a8261145c565b604082019050919050565b6000610f32601f836110e4565b9150610f3d826114ab565b602082019050919050565b610f51816111bd565b82525050565b610f60816111c7565b82525050565b6000602082019050610f7b6000830184610de8565b92915050565b60006020820190508181036000830152610f9b8184610df7565b905092915050565b60006020820190508181036000830152610fbc81610e30565b9050919050565b60006020820190508181036000830152610fdc81610e53565b9050919050565b60006020820190508181036000830152610ffc81610e76565b9050919050565b6000602082019050818103600083015261101c81610e99565b9050919050565b6000602082019050818103600083015261103c81610ebc565b9050919050565b6000602082019050818103600083015261105c81610edf565b9050919050565b6000602082019050818103600083015261107c81610f02565b9050919050565b6000602082019050818103600083015261109c81610f25565b9050919050565b60006020820190506110b86000830184610f48565b92915050565b60006020820190506110d36000830184610f57565b92915050565b600081519050919050565b600082825260208201905092915050565b6000611100826111bd565b915061110b836111bd565b9250827fffffffffffffffffffffffffffffffffffffffffffffffffffffffffffffffff038211156111405761113f611239565b5b828201905092915050565b6000611156826111bd565b9150611161836111bd565b92508282101561117457611173611239565b5b828203905092915050565b600061118a8261119d565b9050919050565b60008115159050919050565b600073ffffffffffffffffffffffffffffffffffffffff82169050919050565b6000819050919050565b600060ff82169050919050565b60005b838110156111f25780820151818401526020810190506111d7565b83811115611201576000848401525b50505050565b6000600282049050600182168061121f57607f821691505b6020821081141561123357611232611268565b5b50919050565b7f4e487b7100000000000000000000000000000000000000000000000000000000600052601160045260246000fd5b7f4e487b7100000000000000000000000000000000000000000000000000000000600052602260045260246000fd5b6000601f19601f8301169050919050565b7f45524332303a207472616e7366657220746f20746865207a65726f206164647260008201527f6573730000000000000000000000000000000000000000000000000000000000602082015250565b7f45524332303a20617070726f766520746f20746865207a65726f20616464726560008201527f7373000000000000000000000000000000000000000000000000000000000000602082015250565b7f45524332303a20696e73756666696369656e7420616c6c6f77616e6365000000600082015250565b7f45524332303a207472616e7366657220616d6f756e742065786365656473206260008201527f616c616e63650000000000000000000000000000000000000000000000000000602082015250565b7f45524332303a207472616e736665722066726f6d20746865207a65726f20616460008201527f6472657373000000000000000000000000000000000000000000000000000000602082015250565b7f45524332303a20617070726f76652066726f6d20746865207a65726f2061646460008201527f7265737300000000000000000000000000000000000000000000000000000000602082015250565b7f45524332303a2064656372656173656420616c6c6f77616e63652062656c6f7760008201527f207a65726f000000000000000000000000000000000000000000000000000000602082015250565b7f45524332303a206d696e7420746f20746865207a65726f206164647265737300600082015250565b6114dd8161117f565b81146114e857600080fd5b50565b6114f4816111bd565b81146114ff57600080fd5b5056fea2646970667358221220397e44748d541ab04f4b19074f41098442aa551368a825dc7c640df616bbc2a864736f6c63430008040033",
  "linkReferences": {},
  "deployedLinkReferences": {}
}